{
    "_format": "hh-sol-artifact-1",
    "contractName": "FileUploader",
    "sourceName": "contracts/FileUploader.sol",
    "abi": [
        {
            "inputs": [
                {
                    "internalType": "string",
                    "name": "_cid",
                    "type": "string"
                }
            ],
            "name": "addfile",
            "outputs": [],
            "stateMutability": "nonpayable",
            "type": "function"
        },
        {
            "inputs": [
                {
                    "internalType": "address",
                    "name": "",
                    "type": "address"
                },
                {
                    "internalType": "uint256",
                    "name": "",
                    "type": "uint256"
                }
            ],
            "name": "files",
            "outputs": [
                {
                    "internalType": "string",
                    "name": "",
                    "type": "string"
                }
            ],
            "stateMutability": "view",
            "type": "function"
        },
        {
            "inputs": [],
            "name": "getfiles",
            "outputs": [
                {
                    "internalType": "string[]",
                    "name": "",
                    "type": "string[]"
                }
            ],
            "stateMutability": "view",
            "type": "function"
        }
    ],
    "bytecode": "0x608060405234801561001057600080fd5b5061085a806100206000396000f3fe608060405234801561001057600080fd5b50600436106100415760003560e01c80632ba6978e1461004657806347621d061461007657806360e80ca514610092575b600080fd5b610060600480360381019061005b919061042e565b6100b0565b60405161006d91906105c8565b60405180910390f35b610090600480360381019061008b919061046a565b610169565b005b61009a6101e4565b6040516100a791906105a6565b60405180910390f35b600060205281600052604060002081815481106100cc57600080fd5b906000526020600020016000915091505080546100e890610724565b80601f016020809104026020016040519081016040528092919081815260200182805461011490610724565b80156101615780601f1061013657610100808354040283529160200191610161565b820191906000526020600020905b81548152906001019060200180831161014457829003601f168201915b505050505081565b6000803373ffffffffffffffffffffffffffffffffffffffff1673ffffffffffffffffffffffffffffffffffffffff168152602001908152602001600020819080600181540180825580915050600190039060005260206000200160009091909190915090805190602001906101e09291906102f9565b5050565b60606000803373ffffffffffffffffffffffffffffffffffffffff1673ffffffffffffffffffffffffffffffffffffffff168152602001908152602001600020805480602002602001604051908101604052809291908181526020016000905b828210156102f057838290600052602060002001805461026390610724565b80601f016020809104026020016040519081016040528092919081815260200182805461028f90610724565b80156102dc5780601f106102b1576101008083540402835291602001916102dc565b820191906000526020600020905b8154815290600101906020018083116102bf57829003601f168201915b505050505081526020019060010190610244565b50505050905090565b82805461030590610724565b90600052602060002090601f016020900481019282610327576000855561036e565b82601f1061034057805160ff191683800117855561036e565b8280016001018555821561036e579182015b8281111561036d578251825591602001919060010190610352565b5b50905061037b919061037f565b5090565b5b80821115610398576000816000905550600101610380565b5090565b60006103af6103aa8461060f565b6105ea565b9050828152602081018484840111156103c757600080fd5b6103d28482856106e2565b509392505050565b6000813590506103e9816107f6565b92915050565b600082601f83011261040057600080fd5b813561041084826020860161039c565b91505092915050565b6000813590506104288161080d565b92915050565b6000806040838503121561044157600080fd5b600061044f858286016103da565b925050602061046085828601610419565b9150509250929050565b60006020828403121561047c57600080fd5b600082013567ffffffffffffffff81111561049657600080fd5b6104a2848285016103ef565b91505092915050565b60006104b78383610534565b905092915050565b60006104ca82610650565b6104d48185610673565b9350836020820285016104e685610640565b8060005b85811015610522578484038952815161050385826104ab565b945061050e83610666565b925060208a019950506001810190506104ea565b50829750879550505050505092915050565b600061053f8261065b565b6105498185610684565b93506105598185602086016106f1565b610562816107e5565b840191505092915050565b60006105788261065b565b6105828185610695565b93506105928185602086016106f1565b61059b816107e5565b840191505092915050565b600060208201905081810360008301526105c081846104bf565b905092915050565b600060208201905081810360008301526105e2818461056d565b905092915050565b60006105f4610605565b90506106008282610756565b919050565b6000604051905090565b600067ffffffffffffffff82111561062a576106296107b6565b5b610633826107e5565b9050602081019050919050565b6000819050602082019050919050565b600081519050919050565b600081519050919050565b6000602082019050919050565b600082825260208201905092915050565b600082825260208201905092915050565b600082825260208201905092915050565b60006106b1826106b8565b9050919050565b600073ffffffffffffffffffffffffffffffffffffffff82169050919050565b6000819050919050565b82818337600083830152505050565b60005b8381101561070f5780820151818401526020810190506106f4565b8381111561071e576000848401525b50505050565b6000600282049050600182168061073c57607f821691505b602082108114156107505761074f610787565b5b50919050565b61075f826107e5565b810181811067ffffffffffffffff8211171561077e5761077d6107b6565b5b80604052505050565b7f4e487b7100000000000000000000000000000000000000000000000000000000600052602260045260246000fd5b7f4e487b7100000000000000000000000000000000000000000000000000000000600052604160045260246000fd5b6000601f19601f8301169050919050565b6107ff816106a6565b811461080a57600080fd5b50565b610816816106d8565b811461082157600080fd5b5056fea2646970667358221220c294db56b598777cec46c47f61d844ed8f84810eb8ac17077cc6827fdee3687e64736f6c63430008040033",
    "linkReferences": {},
    "deployedLinkReferences": {}
}